:020000040000fa
:080000000001040000000000f3
:020000040000fa
:04000800e201000011
:020000040000fa
:04000c00e20100000d
:020000040000fa
:04001000e201000009
:020000040000fa
:04001400e201000005
:020000040000fa
:04001800e201000001
:020000040000fa
:04001c00e2010000fd
:020000040000fa
:04002000e2010000f9
:020000040000fa
:04002400e2010000f5
:020000040000fa
:04002800e2010000f1
:020000040000fa
:04002c00e2010000ed
:020000040000fa
:04003000e2010000e9
:020000040000fa
:04003400e2010000e5
:020000040000fa
:04003800e2010000e1
:020000040000fa
:04003c00e2010000dd
:020000040000fa
:04004000e2010000d9
:020000040000fa
:04004400e2010000d5
:020000040000fa
:04004800e2010000d1
:020000040000fa
:04004c00c8010000e7
:020000040000fa
:04005000e2010000c9
:020000040000fa
:04005400e2010000c5
:020000040000fa
:04005800e2010000c1
:020000040000fa
:04005c00e2010000bd
:020000040000fa
:04006000e2010000b9
:020000040000fa
:04006400e2010000b5
:020000040000fa
:04006800e2010000b1
:020000040000fa
:04006c00e2010000ad
:020000040000fa
:04007000e2010000a9
:020000040000fa
:04007400e2010000a5
:020000040000fa
:04007800e2010000a1
:020000040000fa
:04007c00e20100009d
:020000040000fa
:04008000e201000099
:020000040000fa
:04008400e201000095
:020000040000fa
:04008800e201000091
:020000040000fa
:04008c00e20100008d
:020000040000fa
:04009000e201000089
:020000040000fa
:04009400e201000085
:020000040000fa
:04009800e201000081
:020000040000fa
:04009c00e20100007d
:020000040000fa
:0400a000e201000079
:020000040000fa
:0400a400e201000075
:020000040000fa
:0400a800e201000071
:020000040000fa
:0400ac00e20100006d
:020000040000fa
:0400b000e201000069
:020000040000fa
:0400b400e201000065
:020000040000fa
:0400b800e201000061
:020000040000fa
:0400bc00e20100005d
:020000040000fa
:0400c000e201000059
:020000040000fa
:0400c400e201000055
:020000040000fa
:0400c800e201000051
:020000040000fa
:0400cc00e20100004d
:020000040000fa
:0400d000e201000049
:020000040000fa
:0400d400e201000045
:020000040000fa
:0400d800e201000041
:020000040000fa
:04010800e201000010
:020000040000fa
:04010c00e20100000c
:020000040000fa
:04011000e201000008
:020000040000fa
:04011400e201000004
:020000040000fa
:04011800e201000000
:020000040000fa
:04011c00e2010000fc
:020000040000fa
:04012000e2010000f8
:020000040000fa
:04012400e2010000f4
:020000040000fa
:04012800e2010000f0
:020000040000fa
:04012c00e2010000ec
:020000040000fa
:04013000e2010000e8
:020000040000fa
:04013400e2010000e4
:020000040000fa
:04013800e2010000e0
:020000040000fa
:04013c00e2010000dc
:020000040000fa
:04014000e2010000d8
:020000040000fa
:04014400e2010000d4
:020000040000fa
:04014800e2010000d0
:020000040000fa
:04014c00c8010000e6
:020000040000fa
:04015000e2010000c8
:020000040000fa
:04015400e2010000c4
:020000040000fa
:04015800e2010000c0
:020000040000fa
:04015c00e2010000bc
:020000040000fa
:04016000e2010000b8
:020000040000fa
:04016400e2010000b4
:020000040000fa
:04016800e2010000b0
:020000040000fa
:04016c00e2010000ac
:020000040000fa
:04017000e2010000a8
:020000040000fa
:04017400e2010000a4
:020000040000fa
:04017800e2010000a0
:020000040000fa
:04017c00e20100009c
:020000040000fa
:04018000e201000098
:020000040000fa
:04018400e201000094
:020000040000fa
:04018800e201000090
:020000040000fa
:04018c00e20100008c
:020000040000fa
:04019000e201000088
:020000040000fa
:04019400e201000084
:020000040000fa
:04019800e201000080
:020000040000fa
:04019c00e20100007c
:020000040000fa
:0401a000e201000078
:020000040000fa
:0401a400e201000074
:020000040000fa
:0401a800e201000070
:020000040000fa
:0401ac00e20100006c
:020000040000fa
:0401b000e201000068
:020000040000fa
:0401b400e201000064
:020000040000fa
:0401b800e201000060
:020000040000fa
:0401bc00e20100005c
:020000040000fa
:0401c000e201000058
:020000040000fa
:0401c400e201000054
:020000040000fa
:0401c800e201000050
:020000040000fa
:0401cc00e20100004c
:020000040000fa
:0401d000e201000048
:020000040000fa
:0401d400e201000044
:020000040000fa
:0401d800e201000040
:020000040000fa
:100200002f8020000eff20000e018800000000005b
:10021000000020000000e000020032000001200089
:100220002002880014000700680007000000e000ba
:1002300003003a0040442000010020000200370083
:100240000000200001002000810f7000010032003a
:1002500014000700000020000000e000020032004f
:100260000000020000000000c802020000000000c0
:100270000040da000000fe004440a90040052000d4
:100280000000e0000300320000002000a001880010
:100290004440a800000006008a1f78008b1f7800e9
:1002a0000000060091018800800478000000eb0047
:1002b0001a003700e284440032a0b4009905ba0065
:1002c000e284440032a0b4009906ba00e2844400fb
:1002d00032a0b4000006eb00476fde00fd07b2005d
:1002e000636ce10003003a00ebff07000000eb0045
:1002f0000a003700606ce10004003a00005deb008a
:100300008b05e900fdff3e00040037006168e10055
:10031000010032000086eb000b00070019c7ba008d
:100320001905ba000e04e00003003a000a00e000dc
:10033000e0ff3a0000000600fe07b2009e018800c0
:100340008a047800f5ff3700395dba008b05e900b3
:100350000c003200295dba008b05e900080032006c
:100360000c00e00003003a00e284440032a0b40034
:10037000f5ff370019ddba008b05e900faff3a00f6
:100380008904e800e184440032a0b40000000600c3
:10039000801f78003400f80000002000a0018800d1
:1003a0000000fa008520a90090108000004078002d
:1003b00000e8b7000080fa003400f9004f00780030
:1003c000004006000040da000000fe0000000500ca
:020000040000fa
:1003d0003030000030740000747400000030000001
:1003e0003030000064640000640000003030000021
:1003f000306c00006c6c00000030000030300000f9
:100400007272000072000000303000003075000091
:100410007575000000300000303000007171000080
:100420007100000030300000307700007777000066
:1004300000300000303000007878000078000000c4
:100440003030000030790000797900000030000081
:1004500030300000616100006100000030300000b9
:1004600030620000626200000030000030300000a6
:0804700063630000630000005b
:020000040000fa
:100478000000fa0070202000a01088000d42a9009a
:100488008d20a80071108000c0ff2f000080600040
:10049800701088000de2a8000f42a8000080fa0042
:1004a800000006000200fa00000f780000000000bb
:1004b8007110800000102000008060000000e00043
:1004c800fbff32006010800066006000e60f5000fd
:1004d80003003a009e00780081108800030037006e
:1004e800f00f20001e006000801088000080fa00d5
:1004f800000006000000fa00881f78000004780059
:100508000e003700184078000000fb00e5ff0700e8
:1005180018407800ed4f500002003a00a00020007b
:10052800e0ff070018407800ea4f500002003a0048
:10053800d0002000dbff07000804e800184078001e
:100548000004e000efff3a004f0478000080fa0052
:10055800000006000000fa00c602a800c622a80093
:10056800c642a800c662a800c682a800a802a800c1
:10057800a822a800a842a800a862a800a882a800eb
:100588000080fa00000006000400fa00000f78005e
:1005980011079800efff0700b5ff070007003700b5
:1005a80000000000050037000000000003003700cd
:1005b8000000000001003700000000004016800025
:1005c800610060000000e0000f003200401680006b
:1005d800620060000000e0000b003a004016800056
:1005e800680060000000e00007003a004016800044
:1005f800700060000000e00003003a00801e280040
:10060800bcff0700670037004016800068006000e4
:100618000000e0000b00320040168000620060001d
:100628000000e00007003a004016800070006000fb
:100638000000e00003003a00f01e2800adff0700ac
:100648005800370040168000700060000000e0008d
:1006580003003200601f2800a6ff07005100370082
:1006680040168000620060000000e00003003200d5
:10067800d01f28009fff07004a003700401680005f
:10068800640060000000e0000b00320040168000ab
:10069800620060000000e00007003a004016800099
:1006a800700060000000e00003003a0040202800cd
:1006b80090ff07003b003700401680006400600090
:1006c8000000e0000b00320040168000700060005f
:1006d8000000e00007003200401680006200600061
:1006e8000000e00003003a00b020280081ff070066
:1006f8002c00370040168000640060000000e00015
:100708000b00320040168000700060000000e0001e
:1007180007003a0040168000620060000000e00018
:10072800030032002021280072ff07001d00370057
:1007380040168000680060000000e0000b003200f6
:1007480040168000700060000000e00007003200e2
:1007580040168000620060000000e00003003a00dc
:100768009021280063ff07000e0037004016800024
:10077800680060000000e0000a00320040168000b7
:10078800700060000000e00006003a00401680009b
:10079800620060000000e000020032000022280031
:1007a80054ff070040168000610060000000e00070
:1007b8000e00320040168000620060000000e00079
:1007c8000a003a0040168000680060000000e0005f
:1007d8000600320040168000700060000000e00053
:1007e80002003a007022280042ff070040168000ed
:1007f800610060000000e0000e003200401680003a
:10080800620060000000e0000a003a004016800024
:10081800680060000000e00006003a004016800012
:10082800700060000000e00002003200e0222800b2
:1008380030ff070040168000610060000000e00003
:1008480057ff320040168000620060000000e000a0
:1008580055ff320040168000680060000000e0008c
:1008680053ff3a0040168000700060000000e0006e
:1008780051ff3a00502328001eff07004fff3700a2
:020000040000fa
:100888000008000002000000000000000000000056
:020000040000fa
:0200000401f009
:040000000587000070
:020000040000fa
:0200000401f009
:040004003f000000b9
:00000001FF
